:020000040000FA
:04000000DCEF0BF036
:10060000003F065B4F666D7D077F6F777C395E79B3
:1006100071496E73697261206173206D6F656461E9
:1006200073002823293A41746976617220736F6DD3
:10063000002823293A4D7574617220736F6D00286C
:10064000417065727465202A29002833293A526165
:1006500070696461002832293A4D65646961002837
:1006600031293A4C656E746100204A554B45424F22
:100670005800282A293A4D656E750000000E3E6E1E
:10068000100E3D6E000E406E100E3F6E040E436E57
:10069000570E426E000E956E000E836E000E966E23
:1006A000C30E926E030E936E010E946EA0EC0BF0CF
:1006B000ADEC0EF09EEC0EF04FEC0DF00F0E23ECB7
:1006C0000BF00C0E23EC0BF0000E416EE3EC0AF085
:1006D000690E096E060E0A6EA4EC0DF0000E026E95
:1006E000FA0E016E62EC0BF0A3EC0AF0690E096ED3
:1006F000060E0A6EA4EC0DF0000E026EFA0E016EEC
:1007000062EC0BF063EC0AF0690E096E060E0A6EDD
:10071000A4EC0DF0000E026EFA0E016E62EC0BF00E
:10072000412A030E416497EF03F099EF03F066EF5F
:1007300003F0E3EC0AF0690E096E060E0A6EA4ECF3
:100740000DF0000E026EFA0E016E62EC0BF0010E5F
:1007500023EC0BF0C00E23EC0BF0110E096E060E0D
:100760000A6EA4EC0DF0030E096E030EBDEC0CF046
:100770003F0E096E060E0A6EA4EC0DF0000E026E1E
:10078000640E016E62EC0BF0AAEC07F0A8EC0EF020
:100790003D50011809E13E500218D8B4D2EF03F0E1
:1007A000D4EF03F0C4EF03F0A8EC0EF001C03DF06D
:1007B00002C03EF0A8EC0EF001A0E1EF03F0E3EF81
:1007C00003F0C4EF03F0320E87EC0CF0000E026E63
:1007D000320E016E62EC0BF0000E87EC0CF042C0A2
:1007E0000EF043C00FF071EC09F0AAEC07F0A8EC92
:1007F0000EF03F50011809E140500218D8B403EF41
:1008000004F005EF04F0F6EF04F0A8EC0EF001C0E0
:100810003FF002C040F0A8EC0EF001A012EF04F08F
:1008200014EF04F01AEF04F042C00EF043C00FF0D2
:1008300071EC09F0A8EC0EF001A621EF04F023EF13
:1008400004F057EF04F01E0E51EC0CF0010E23ECF7
:100850000BF0050E096E010EBDEC0CF0630E096E77
:10086000060E0A6EA4EC0DF023EC0AF04250431081
:10087000D8A43DEF04F03FEF04F047EF04F0170E6B
:10088000026E700E016E62EC0BF049EF04F01AEC90
:100890000EF0000E51EC0CF0040E096E040EBDECCF
:1008A0000CF0720E096E060E0A6EA4EC0DF0A8ECA8
:1008B0000EF001AE5EEF04F060EF04F094EF04F090
:1008C0001E0E51EC0CF0010E23EC0BF0050E096E20
:1008D000010EBDEC0CF0590E096E060E0A6EA4EC6A
:1008E0000DF023EC0AF042504310D8A47AEF04F044
:1008F0007CEF04F084EF04F0100E026E680E016EBF
:1009000062EC0BF086EF04F0F3EC0DF0000E51EC0E
:100910000CF0040E096E040EBDEC0CF0720E096EA4
:10092000060E0A6EA4EC0DF0A8EC0EF002A69BEFEA
:1009300004F09DEF04F0D1EF04F01E0E51EC0CF02A
:10094000010E23EC0BF0050E096E010EBDEC0CF050
:100950004E0E096E060E0A6EA4EC0DF023EC0AF0A2
:1009600042504310D8A4B7EF04F0B9EF04F0C1EF40
:1009700004F0080E026ECA0E016E62EC0BF0C3EFBB
:1009800004F0CCEC0DF0000E51EC0CF0040E096EEE
:10099000040EBDEC0CF0720E096E060E0A6EA4EC8D
:1009A0000DF0A8EC0EF002A0D8EF04F0DAEF04F09E
:1009B000F6EF04F0570E421807E1040E4318D8A4CE
:1009C000E4EF04F0E6EF04F0ECEF04F0000E436E09
:1009D000000E426EF0EF04F0040E436E570E426EAE
:1009E00042C00EF043C00FF071EC09F0030E0F6E21
:1009F00042C009F043C00AF0000E0C6E0A0E0B6EE6
:100A0000CBEC09F0095023EC0DF0020E0F6E000E36
:100A1000046E0A0E036E42C001F043C002F00FECF8
:100A200009F001C009F002C00AF0000E0C6E0A0EB7
:100A30000B6ECBEC09F0095023EC0DF0010E0F6E9C
:100A4000000E046E640E036E42C001F043C002F05B
:100A50000FEC09F001C009F002C00AF0000E0C6EA4
:100A60000A0E0B6ECBEC09F0095023EC0DF0000ED2
:100A70000F6E030E046EE80E036E42C001F043C019
:100A800002F00FEC09F001C009F002C00AF0000EFC
:100A90000C6E0A0E0B6ECBEC09F0095023EC0DF036
:100AA00067EC08F0000E026E010E016E62EC0BF0B6
:100AB000F5EF03F000EF00F002BE6AEF05F0025020
:100AC00007E1080E015CD8B068EF05F06AEF05F0A9
:100AD00094EF05F003500410D8B471EF05F073EFF4
:100AE00005F083EF05F001C005F0010E066E052A42
:100AF0007CEF05F0D8900636052E7AEF05F006500B
:100B0000921282EF06F001C005F0010E066E052A72
:100B10008CEF05F0D8900636052E8AEF05F00650CA
:100B2000FF0A921682EF06F002BEA2EF05F0025015
:100B300007E1100E015CD8B0A0EF05F0A2EF05F0C0
:100B4000D0EF05F003500410D8B4A9EF05F0ABEFD7
:100B500005F0BDEF05F001C005F0F80E0526010E09
:100B6000066E052AB6EF05F0D8900636052EB4EFCE
:100B700005F00650931282EF06F001C005F0F80E62
:100B80000526010E066E052AC8EF05F0D890063638
:100B9000052EC6EF05F00650FF0A931682EF06F009
:100BA00002BEDEEF05F0025007E1180E015CD8B07E
:100BB000DCEF05F0DEEF05F00CEF06F0035004105B
:100BC000D8B4E5EF05F0E7EF05F0F9EF05F001C067
:100BD00005F0F00E0526010E066E052AF2EF05F06F
:100BE000D8900636052EF0EF05F00650941282EFED
:100BF00006F001C005F0F00E0526010E066E052A6E
:100C000004EF06F0D8900636052E02EF06F00650E7
:100C1000FF0A941682EF06F002BE1AEF06F00250A9
:100C200007E1200E015CD8B018EF06F01AEF06F0CD
:100C300048EF06F003500410D8B421EF06F023EF7C
:100C400006F035EF06F001C005F0E80E0526010EAE
:100C5000066E052A2EEF06F0D8900636052E2CEFEC
:100C600006F00650951282EF06F001C005F0E80E7E
:100C70000526010E066E052A40EF06F0D8900636CE
:100C8000052E3EEF06F00650FF0A951682EF06F09D
:100C900002BE56EF06F0025007E1280E015CD8B004
:100CA00054EF06F056EF06F082EF06F00350041002
:100CB000D8B45DEF06F05FEF06F071EF06F001C00B
:100CC00005F0E00E0526010E066E052A6AEF06F015
:100CD000D8900636052E68EF06F00650961282EF81
:100CE00006F001C005F0E00E0526010E066E052A8D
:100CF0007CEF06F0D8900636052E7AEF06F0065007
:100D0000FF0A9616120002BE91EF06F0025007E1AC
:100D1000080E015CD8B08FEF06F091EF06F0BBEF44
:100D200006F003500410D8B498EF06F09AEF06F0DE
:100D3000AAEF06F001C005F0010E066E052AA3EF2A
:100D400006F0D8900636052EA1EF06F00650801268
:100D5000A9EF07F001C005F0010E066E052AB3EFFA
:100D600006F0D8900636052EB1EF06F00650FF0AC1
:100D70008016A9EF07F002BEC9EF06F0025007E1A6
:100D8000100E015CD8B0C7EF06F0C9EF06F0F7EF20
:100D900006F0F80E0126FF0E022203500410D8B40C
:100DA000D4EF06F0D6EF06F0E6EF06F001C005F04E
:100DB000010E066E052ADFEF06F0D8900636052EE6
:100DC000DDEF06F006508112A9EF07F001C005F033
:100DD000010E066E052AEFEF06F0D8900636052EB6
:100DE000EDEF06F00650FF0A8116A9EF07F002BEEC
:100DF00005EF07F0025007E1180E015CD8B003EFD1
:100E000007F005EF07F033EF07F0F00E0126FF0EB5
:100E1000022203500410D8B410EF07F012EF07F0CD
:100E200022EF07F001C005F0010E066E052A1BEF48
:100E300007F0D8900636052E19EF07F006508212FB
:100E4000A9EF07F001C005F0010E066E052A2BEF91
:100E500007F0D8900636052E29EF07F00650FF0A56
:100E60008216A9EF07F002BE41EF07F0025007E13A
:100E7000200E015CD8B03FEF07F041EF07F06FEFB5
:100E800007F0E80E0126FF0E022203500410D8B42A
:100E90004CEF07F04EEF07F05EEF07F001C005F0F2
:100EA000010E066E052A57EF07F0D8900636052E7C
:100EB00055EF07F006508312A9EF07F001C005F0C7
:100EC000010E066E052A67EF07F0D8900636052E4C
:100ED00065EF07F00650FF0A8316A9EF07F002BE80
:100EE0007DEF07F0025007E1280E015CD8B07BEFE0
:100EF00007F07DEF07F0A9EF07F0E00E0126FF0EE7
:100F0000022203500410D8B488EF07F08AEF07F0EC
:100F10009AEF07F001C005F0010E066E052A93EF67
:100F200007F0D8900636052E91EF07F00650841290
:100F3000A9EF07F001C005F0010E066E052AA3EF28
:100F400007F0D8900636052EA1EF07F00650FF0AED
:100F50008416120083CF06F00F0E9512000E0A6E53
:100F6000F80E93160AC001F0010E026E012ABBEFC3
:100F700007F0D8900236012EB9EF07F00250931215
:100F8000070E81120AC001F0010E026E012ACBEF9A
:100F900007F0D8900236012EC9EF07F00250FF0A81
:100FA0008116000E086E000E076E074A082A08BE5A
:100FB000E3EF07F0085009E10A0E075CD8A0E3EF61
:100FC00007F0E5EF07F0D5EF07F0000E096E09C056
:100FD00001F0010E026E012AF0EF07F0D890023600
:100FE000012EEEEF07F0025083140009D8A4FBEFA6
:100FF00007F0FDEF07F015EF08F00A50040DF3506D
:101000000924016E010E026E000E036E012A0CEF20
:1010100008F0D89002360336012E09EF08F002508E
:101020007612035077122FEF08F00A50040DF35098
:101030000924016E010E026E000E036E012A24EFD8
:1010400008F0D89002360336012E21EF08F0021C7A
:10105000046E031C056E0450761605507716092A97
:10106000030E096436EF08F038EF08F0E7EF07F0F9
:101070000A2A020E0A643FEF08F041EF08F0B0EFD1
:1010800007F07650741807E177507518D8A44BEF25
:1010900008F04DEF08F050EF08F07F0656EF08F02B
:1010A0000A0E7F6E76C074F077C075F07F50D8A4BA
:1010B0005CEF08F05EEF08F062EF08F074C078F0C3
:1010C00075C079F006C083FF000E956E1200000E09
:1010D000956E000E026E020E016E000E046E000E82
:1010E000036E83EC06F0000E026E030E016E000E1E
:1010F000046E000E036E83EC06F0000E026E040E0A
:10110000016E000E046E000E036E83EC06F0000EFE
:10111000026E050E016E000E046E000E036E83EC6F
:1011200006F0000E836EF1EF08F0010E7D24F66EDE
:10113000F76A060EF7220800F5CF83FF000E026E55
:10114000020E016E000E046E010E036E83EC06F0BB
:10115000010E7E6E0EEF09F0010E7C24F66EF76A2A
:10116000060EF7220800F5CF83FF000E026E030E75
:10117000016E000E046E010E036E83EC06F0020E8B
:101180007E6E0EEF09F0010E7B24F66EF76A060EF6
:10119000F7220800F5CF83FF000E026E040E016EE9
:1011A000000E046E010E036E83EC06F0030E7E6EDD
:1011B0000EEF09F0010E7A24F66EF76A060EF7229A
:1011C0000800F5CF83FF000E026E050E016E000EC3
:1011D000046E010E036E83EC06F0000E7E6E0EEFC1
:1011E00009F07E50076E086A0850000AD8B4FBEF79
:1011F00008F0EDEF08F00750000AD8B495EF08F0BA
:10120000010AD8B4ACEF08F0030AD8B4C3EF08F071
:10121000010AD8B4DAEF08F0EDEF08F01200000E82
:10122000066E04BE18EF09F016EF09F01EEF09F084
:10123000036C041ED8B0042A010E066E02BE25EF10
:1012400009F023EF09F02BEF09F0016C021ED8B072
:10125000022A010E061A000E086E000E076E0350D9
:101260000410D8B436EF09F038EF09F060EF09F058
:10127000010E056E40EF09F0D89003360436052ABA
:1012800004AE45EF09F047EF09F03CEF09F0D890C4
:10129000073608360350015C04500258D8A053EFBB
:1012A00009F055EF09F05AEF09F00350015E0450C0
:1012B000025A0780D89004320332052E47EF09F016
:1012C0000650D8B466EF09F068EF09F06CEF09F04A
:1012D000076C081ED8B0082A07C001F008C002F049
:1012E0001200000E026E320E016E62EC0BF0010E67
:1012F00023EC0BF0000E026E320E016E62EC0BF06E
:10130000800E23EC0BF05F0E096E060E0A6EA4EC45
:101310000DF0000E026E320E016E62EC0BF0C00E8C
:1013200023EC0BF0550E096E060E0A6EA4EC0DF0C0
:10133000000E026E320E016E62EC0BF0900E23EC8A
:101340000BF04A0E096E060E0A6EA4EC0DF0000EAC
:10135000026E320E016E62EC0BF0D00E23EC0BF03D
:10136000570E0E1807E1040E0F18D8A4BAEF09F0B3
:10137000BCEF09F0C4EF09F0310E096E060E0A6EDB
:10138000A4EC0DF0CAEF09F0220E096E060E0A6EEB
:10139000A4EC0DF01200000E0E6E0ABED4EF09F0A0
:1013A000D2EF09F0DAEF09F0096C0A1ED8B00A2A68
:1013B000010E0E6E0CBEE1EF09F0DFEF09F0E5EF74
:1013C00009F00B6C0C1ED8B00C2A0B500C10D8B4C2
:1013D000ECEF09F0EEEF09F012EF0AF0010E0D6EDE
:1013E000F6EF09F0D8900B360C360D2A0CAEFBEF59
:1013F00009F0FDEF09F0F2EF09F00B50095C0C5019
:101400000A58D8A006EF0AF008EF0AF00CEF0AF02D
:101410000B50095E0C500A5AD8900C320B320D2E2C
:10142000FDEF09F00E50D8B418EF0AF01AEF0AF0E9
:101430001EEF0AF0096C0A1ED8B00A2A09C009F08A
:101440000AC00AF01200400E23EC0BF020EE44F02C
:1014500010EE0CF02F0EDBCFE3FFE806FCE2400EAF
:1014600023EC0BF0000E3C6E0C0E3C24D96EDA6AB5
:10147000000EDA22DF507AEC0DF03C2A2F0E3C648D
:1014800044EF0AF046EF0AF034EF0AF0060E096E58
:10149000020EBDEC0CF0000E7AEC0DF0010E7AECB1
:1014A0000DF0020E7AEC0DF0060E096E030EBDEC87
:1014B0000CF0030E7AEC0DF0040E7AEC0DF0050E34
:1014C0007AEC0DF01200400E23EC0BF021EE00F050
:1014D00010EE0CF02F0EDBCFE3FFE806FCE2400E2F
:1014E00023EC0BF0000E3C6E0C0E3C24D96EDA6A35
:1014F000000EDA22DF507AEC0DF03C2A2F0E3C640D
:1015000084EF0AF086EF0AF074EF0AF0010E096E1C
:10151000020EBDEC0CF0000E7AEC0DF0010E7AEC30
:101520000DF0020E7AEC0DF0010E096E030EBDEC0B
:101530000CF0030E7AEC0DF0040E7AEC0DF0050EB3
:101540007AEC0DF01200400E23EC0BF020EE80F050
:1015500010EE0CF02F0EDBCFE3FFE806FCE2400EAE
:1015600023EC0BF0000E3C6E0C0E3C24D96EDA6AB4
:10157000000EDA22DF507AEC0DF03C2A2F0E3C648C
:10158000C4EF0AF0C6EF0AF0B4EF0AF0010E096EDC
:10159000020EBDEC0CF0000E7AEC0DF0010E7AECB0
:1015A0000DF0020E7AEC0DF0010E096E030EBDEC8B
:1015B0000CF0030E7AEC0DF0040E7AEC0DF0050E33
:1015C0007AEC0DF01200400E23EC0BF020EEB0F0A0
:1015D00010EE0CF02F0EDBCFE3FFE806FCE2400E2E
:1015E00023EC0BF0000E3C6E0C0E3C24D96EDA6A34
:1015F000000EDA22DF507AEC0DF03C2A2F0E3C640C
:1016000004EF0BF006EF0BF0F4EF0AF0010E096E99
:10161000020EBDEC0CF0000E7AEC0DF0010E7AEC2F
:101620000DF0020E7AEC0DF0010E096E030EBDEC0A
:101630000CF0030E7AEC0DF0040E7AEC0DF0050EB2
:101640007AEC0DF01200086E83CF07F0000E956E55
:10165000000E026E220E016E000E046E000E036E6E
:1016600083EC06F008C083FF000E026E210E016EAF
:10167000000E046E010E036E83EC06F0000E026E87
:10168000210E016E000E046E000E036E83EC06F058
:1016900007C083FF020E0818D8B451EF0BF053EFC8
:1016A0000BF05BEF0BF00804D8A459EF0BF05BEFE5
:1016B0000BF05FEF0BF084EC0EF061EF0BF092ECAF
:1016C0000EF01200000E046E000E036E94EF0BF08D
:1016D000000E066E000E056E065009E1290E055C2F
:1016E000D8A075EF0BF077EF0BF079EF0BF092EFDE
:1016F0000BF0000E086E000E076E085009E1030E95
:10170000075CD8A086EF0BF088EF0BF08AEF0BF0A8
:101710008EEF0BF0074A082A7DEF0BF0054A062AE8
:101720006CEF0BF0034A042A0150035C025004588A
:10173000D8A09DEF0BF09FEF0BF068EF0BF01200BD
:10174000000E026E220E016E000E046E000E036E7D
:101750005CEC05F0000E026E210E016E000E046EB0
:10176000000E036E5CEC05F0000E956E84EC0EF03E
:1017700084EC0EF084EC0EF084EC0EF084EC0EF0B1
:10178000380E23EC0BF084EC0EF084EC0EF0380EE7
:1017900023EC0BF084EC0EF0380E23EC0BF0380E3B
:1017A00023EC0BF0060E23EC0BF00C0E23EC0BF0ED
:1017B000010E23EC0BF01200B20EF66E1C0EF76E4B
:1017C000000EF86E01EE00F010EE30F00900F5CFDB
:1017D000EEFFE550E150FAE1E60EF66E190EF76EF7
:1017E000000EF86E00EE80F010EE60F00900F5CF0C
:1017F000EEFFE550E150FAE1820EF66E1C0EF76E38
:10180000000EF86E00EE44F010EE30F00900F5CF57
:10181000EEFFE550E150FAE100EE74F00C0EEE6AD6
:10182000E806FDE1000EF86E00013EEF03F0000E49
:10183000066E000E056E03500410D8B422EF0CF0B3
:1018400024EF0CF04CEF0CF0010E076E2CEF0CF0B7
:10185000D89003360436072A04AE31EF0CF033EF8C
:101860000CF028EF0CF0D890053606360350015CDA
:1018700004500258D8A03FEF0CF041EF0CF046EFB7
:101880000CF00350015E0450025A0580D8900432D7
:101890000332072E33EF0CF005C001F006C002F052
:1018A00012000A6E010ECB24016E026A000E0222A3
:1018B0000AC003F0046A71EC0EF001C00BF002C024
:1018C0000CF00BC001F00CC002F0000E046E190EFB
:1018D000036E17EC0CF001C00BF002C00CF0FF0E11
:1018E0000B16030E0C160BC008F00CC009F0D890B4
:1018F00009320832D890093208320850BE6E0BC047
:1019000008F0030E08160838F00BBD1212000A6E1C
:10191000010ECB24016E026A000E02220AC003F0FF
:10192000046A71EC0EF001C00BF002C00CF00BC0A9
:1019300001F00CC002F0000E046E190E036E17ECDD
:101940000CF001C00BF002C00CF0FF0E0B16030EE2
:101950000C160BC008F00CC009F0D8900932083200
:10196000D890093208320850BB6E0BC008F0030E45
:1019700008160838F00BBA1212000B6E000E0A6E31
:101980000B04D8A4C6EF0CF0C8EF0CF0CBEF0CF0B2
:101990000950800F0A6E020E0B18D8A4D2EF0CF07B
:1019A000D4EF0CF0D7EF0CF00950C00F0A6E030E05
:1019B0000B18D8A4DEEF0CF0E0EF0CF0E3EF0CF026
:1019C0000950900F0A6E040E0B18D8A4EAEF0CF021
:1019D000ECEF0CF0EFEF0CF00950D00F0A6E0A504C
:1019E00023EC0BF012000000010204080808001F9D
:1019F00000001F000E110000100804120A0A0A0A53
:101A0000090402010000110E001F00001F00020265
:101A10000204081000000000010204090A0A001F65
:101A200000001F000E110000100804020202080846
:101A3000080402010000110E001F00001F000A0A26
:101A4000120408100000106E0F50D8A42AEF0DF0F9
:101A50002CEF0DF02EEF0DF010C07DF00F04D8A488
:101A600034EF0DF036EF0DF038EF0DF010C07CF0D4
:101A7000020E0F18D8A43FEF0DF041EF0DF043EF29
:101A80000DF010C07BF0030E0F18D8A44AEF0DF034
:101A90004CEF0DF04EEF0DF010C07AF01200000E7A
:101AA000026E020E016E000E046E000E036E5CEC00
:101AB00005F0000E026E030E016E000E046E000EA5
:101AC000036E5CEC05F0000E026E040E016E000E5B
:101AD000046E000E036E5CEC05F0000E026E050E47
:101AE000016E000E046E000E036E5CEC05F0000E3D
:101AF000956E1200076E83CF08F0000E956E000EF3
:101B0000026E220E016E000E046E010E036E83EC57
:101B100006F007C083FF000E026E210E016E000E5C
:101B2000046E010E036E83EC06F0000E026E210EB1
:101B3000016E000E046E000E036E83EC06F008C00A
:101B400083FF92EC0EF01200000E0D6EB7EF0DF059
:101B50000D5009240B6E000E0A200C6E0BC0F6FF10
:101B60000CC0F7FF0800F5507AEC0DF00D2A0D506F
:101B700009240B6E000E0A200C6E0BC0F6FF0CC081
:101B8000F7FF0800F5500009D8A4C9EF0DF0CBEF1E
:101B90000DF0A8EF0DF01200000E0E6E000E0D6E8F
:101BA000320E87EC0CF0000E026E320E016E62EC0B
:101BB0000BF0000E87EC0CF0000E026E640E016E4E
:101BC00062EC0BF00D4A0E2A0EBEF0EF0DF00E5037
:101BD00009E10F0E0D5CD8A0F0EF0DF0F2EF0DF063
:101BE000D0EF0DF01200000E0E6E000E0D6E320ED4
:101BF00087EC0CF0000E026EC80E016E62EC0BF06A
:101C0000000E87EC0CF0010E026EF40E016E62EC19
:101C10000BF00D4A0E2A0EBE17EF0EF00E5009E122
:101C2000060E0D5CD8A017EF0EF019EF0EF0F7EFCF
:101C30000DF01200000E0E6E000E0D6E320E87ECCF
:101C40000CF0010E026EF40E016E62EC0BF0000E51
:101C500087EC0CF0030E026EE80E016E62EC0BF0E6
:101C60000D4A0E2A0EBE3EEF0EF00E5009E1040E94
:101C70000D5CD8A03EEF0EF040EF0EF01EEF0EF020
:101C80001200000F0F0F03030303001F1F1F0000AC
:101C90000000001E1E1E0606060603030F1F1F0E71
:101CA0000000000000010100000006061E1E1E1CB0
:101CB00000000000010204090A0A001F00000000E1
:101CC0000E110000100804120A0A0A0A090402018F
:101CD0000000110E000000001F000A0A1204081084
:101CE000000001500302F3CF05F0F4CF06F00150DD
:101CF0000402F350062602500302F350062605C0E4
:101D000001F006C002F01200000E026E92EC0EF01E
:101D1000022A310E02648FEF0EF091EF0EF086EF83
:101D20000EF01200000E016E012A180E01649BEFE6
:101D30000EF09DEF0EF094EF0EF01200949294943A
:101D4000030ECA12CA840C0EBD120C0EBA12120077
:101D500078C001F079C002F01200070E93160F0E42
:041D600095121200C6
:020000040020DA
:08000000FFFFFFFFFFFFFFFF00
:020000040030CA
:0E000000FF027100FF8380FF0FC00FE00F4072
:00000001FF
